:100000000C942A000C9496000C943C000C943C0038
:100010000C943C000C943C000C943C000C943C0070
:100020000C943C000C943C000C943C000C943C0060
:100030000C943C000C943C000C943C000C943C0050
:100040000C943C000C943C000C943C000C943C0040
:100050000C943C0011241FBECFE5D8E0DEBFCDBF1D
:1000600020E0A0E6B0E001C01D92A136B207E1F7A2
:100070000E9446010C94B8020C94000060E080E0FD
:100080000E94DC0061E080E00E94DC0062E080E031
:100090000E94DC0060E081E00E94DC0061E081E021
:1000A0000E94DC0062E081E00E94DC0062E083E00C
:1000B0000E94D8000E9496020E949D020E94860221
:1000C00086E00E948A0260E080E00E94E0000E94D8
:1000D000A70260E080E00E94E5008091600081302E
:1000E00019F410926000089561E080E00E94E00041
:1000F0000E94A70261E080E00E94E500809160001C
:10010000813019F410926000089562E080E00E944E
:10011000E0000E94A70262E080E00E94E50080917A
:100120006000823081F61092600008951F920F9255
:100130000FB60F9211242F933F934F935F936F93BA
:100140007F938F939F93AF93BF93EF93FF9360E061
:1001500080E00E94EA00813031F061E080E00E949E
:10016000EA00813031F40E94F00081E08093600069
:100170000EC062E080E00E94EA00813031F40E940B
:100180001D0182E08093600002C010926000FF9128
:10019000EF91BF91AF919F918F917F916F915F91FF
:1001A0004F913F912F910F900FBE0F901F90189578
:1001B00040E00E944901089541E00E9449010895EC
:1001C00041E00E94B60181E0089540E00E94B6013E
:1001D00082E008950E94250208950E945202089527
:1001E00060E080E00E94E50061E080E00E94E500C0
:1001F00061E081E00E94E00061E080E00E94E000B8
:100200000E94A70261E081E00E94E50061E080E0D9
:100210000E94E50060E081E00E94E00062E080E092
:100220000E94E0000E94A70260E081E00E94E500D9
:1002300062E080E00E94E500089562E080E00E94B4
:10024000E50060E081E00E94E00062E080E00E9462
:10025000E0000E94A70260E081E00E94E50062E009
:1002600080E00E94E50061E081E00E94ED0061E035
:1002700080E00E94ED000E94A70261E081E00E9400
:10028000E50061E080E00E94E50008950E943E00E4
:10029000FDCF813001F130F08230B1F1833009F4CB
:1002A0004CC00895413059F42AB381E090E002C077
:1002B000880F991F6A95E2F7822B8ABB08952AB3AB
:1002C00081E090E002C0880F991F6A95E2F780955F
:1002D00082238ABB0895413059F427B381E090E02E
:1002E00002C0880F991F6A95E2F7822B87BB089599
:1002F00027B381E090E002C0880F991F6A95E2F76A
:100300008095822387BB0895413059F424B381E05E
:1003100090E002C0880F991F6A95E2F7822B84BB98
:10032000089524B381E090E002C0880F991F6A9578
:10033000E2F78095822384BB0895413059F421B3BC
:1003400081E090E002C0880F991F6A95E2F7822B46
:1003500081BB089521B381E090E002C0880F991F0E
:100360006A95E2F78095822381BB0895813011F16F
:1003700030F08230C1F1833009F44EC0089541302D
:1003800059F42BB381E090E0062E02C0880F991F2C
:100390000A94E2F7822B8BBB411156C02BB381E04C
:1003A00090E002C0880F991F6A95E2F7809582233A
:1003B0008BBB0895413059F428B381E090E002C02E
:1003C000880F991F6A95E2F7822B88BB089528B39E
:1003D00081E090E002C0880F991F6A95E2F780954E
:1003E000822388BB0895413059F425B381E090E021
:1003F00002C0880F991F6A95E2F7822B85BB08958A
:1004000025B381E090E002C0880F991F6A95E2F75A
:100410008095822385BB0895413059F422B381E051
:1004200090E002C0880F991F6A95E2F7822B82BB89
:10043000089522B381E090E002C0880F991F6A9569
:10044000E2F78095822382BB0895813079F028F00D
:100450008230A9F08330E1F024C089B390E002C07B
:10046000959587956A95E2F78170089586B390E037
:1004700002C0959587956A95E2F78170089583B3D8
:1004800090E002C0959587956A95E2F7817008958E
:1004900080B390E002C0959587956A95E2F78170E8
:1004A00008950895813089F028F08230C9F08330B2
:1004B00011F108952BB381E090E002C0880F991FDD
:1004C0006A95E2F782278BBB089528B381E090E01C
:1004D00002C0880F991F6A95E2F7822788BB0895AA
:1004E00025B381E090E002C0880F991F6A95E2F77A
:1004F000822785BB089522B381E090E002C0880F77
:10050000991F6A95E2F7822782BB08958FB78068AA
:100510008FBF0895863049F48BB780648BBF85B751
:10052000816085BF85B78D7F85BF089583B78F7B39
:1005300083BF83B7877F83BF089583B7816083BFFD
:1005400083B78D7F83BF83B7846083BF089512BE56
:1005500020E030E008C008B600FEFDCF88B781601B
:1005600088BF2F5F3F4F23313105A8F312BE089596
:04057000F894FFCF2D
:00000001FF
